S01C00004C696E65547261636572202D20474541522052312E73726563F0
S11300000C948E010C94B6010C94B6010C94B601B8
S11300100C94B6010C94B6010C94B6010C94B60180
S11300200C94B6010C94B6010C94A9150C94B60169
S11300300C94B6010C94B6010C94B6010C94B60160
S11300400C94B6010C94B6010C94B6010C94B60150
S11300500C94B6010F1CC51C352558250D261727F1
S1130060A7281929062A6C2A872ABF1DC31DC71D64
S1130070CB1DCF1DD31DD71DDB1DDE1DE21DE61DCF
S1130080E91DEC1DEF1D7B1F861F9A1FB01FC31FA8
S1130090D11FE21FEC1FA12C3D2FBA36BB32FA321E
S11300A07D336134E7344635813595350F1CC51CE5
S11300B0352558250D261727A7281929062A6C2A1D
S11300C0872AA12C3D2FC036BB32FA327D336134EE
S11300D0E734463581359535A12C3D2FEC18BB32DC
S11300E0FA327D336134E734463581359535A12CB8
S11300F03D2FBA36BB32FA327D336134E7344635AC
S113010081359A350F1C7A38352558250D26172741
S1130110A7281929062A6C2A872AC000E041006012
S113012000700078014003400740E0018007780038
S11301302D2D004C37004C36004C35004C34004C0F
S113014033004C32004C31005231005232005233F1
S1130150005234005235005236005237002020201D
S1130160537461727420496E64657820200045647C
S113017069742053656E736F7200496E64657820EC
S11301804D656E750050726F67204D656E75005336
S1130190544F500052554E2000496E76004E726DF9
S11301A0004F4646004F4E20004E6C696E6500437A
S11301B06C696E6500536C696E65004C6C696E65A4
S11301C000526C696E650052444300444946002065
S11301D052756E20446C79200000000000205469A0
S11301E06D656F757420000000000020456E64206A
S11301F04272616B652000000020566261742043E6
S11302006F6D702000000020446961676E6F737425
S1130210696373000052756E2020004C656674207B
S113022000526967687400467772642000526576EC
S113023072730053746F702000536572766F0047B9
S11302406F546F2000456E642020004142572050B7
S1130250726F6772616D00000000000000000020F2
S113026053746F7020617420690000000000000066
S113027020436865636B506F696E74000000000072
S1130280002053657420504420000000000000004A
S113029000002053656E736F7220436F6E6669674A
S11302A0000000204D6F746F72204F666673657492
S11302B0000000002053656C6654657374000000F0
S11302C00000000000205072657363616C657273F6
S11302D0000000000000205662617420000000004D
S11302E0000000000000002053657474696E677399
S11302F0000000000000000020504F4C494E454DC6
S113030041203230313920200020202057534543EA
S11303102D3233204142202020008E3811241FBE6C
S1130320CFE5D8E0DEBFCDBF13E0A0E6B0E0E6E75E
S1130330FCE702C005900D92A23CB107D9F725E075
S1130340A2ECB3E001C01D92A032B207E1F711E0C4
S1130350CEE8D1E004C02197FE010E94DA3ACD38FC
S1130360D107C9F70E94BA150C94393E0C940000C9
S1130370611102C088E401C08CE080B911B808950D
S113038084EA86BF06B607FEFDCF81B1887F883038
S113039011F0803179F463B984E886BF06B607FEAC
S11303A0FDCF91B1987F983139F081E0903429F0F4
S11303B080E0089580E0089581E0089580E4689FD6
S11303C0B0011124646866BF06B607FEFDCF83B191
S11303D0089563B984E886BF06B607FEFDCF91B1E0
S11303E0987F81E0983209F080E0089584E986BF1F
S11303F008958F9A8A9ABE9AC698A39AAB98A4989D
S1130400AC9AA298AA9AA598AD9ABA9A889A899A07
S11304100895DC01442371F0242F30E02150310988
S1130420FB01E20FF31F9081FD01E20FF31F9083A4
S1130430415091F70895CF93DF93EC0120E030E031
S113044070E050E0A1E0B0E0FB01022E02C0F5959F
S1130450E7950A94E2F7E0FF1EC0FA01022E02C0FB
S1130460F595E7950A94E2F7E0FF0AC0FD01022E34
S113047002C0EE0FFF1F0A94E2F78881E82B0AC03E
S1130480FD01022E02C0EE0FFF1F0A94E2F7E09571
S11304909881E923E8832F5F3F4F28303105A1F687
S11304A0DF91CF91089517B885E38A95F1F700009D
S11304B0369A349BFECF349A64B175B180E090E0F3
S11304C00E94BF392EE432E64CE950E40E944D3AD2
S11304D028EB3FEA43EA5EE30E94173920E030E06C
S11304E04AE753E40E94AB380E949039CB01089547
S11304F010923E0480913E048E30A0F490E0FC0102
S1130500EE0FFF1FE653FB4F60817181880F991F27
S1130510805090400E94FC3D80913E048F5F809308
S11305203E04E8CF08958091CA03882389F060913E
S11305300F047091100480E290E00E94FC3D6091F1
S11305401104709112048EE190E00E94FC3D089524
S113055060910F047091100482E290E00E94FC3DCF
S1130560609111047091120484E290E00E94FC3DB9
S113057008958091760481110BC0E3E7F4E0ABE6C3
S1130580B4E015968C911597808316968C9181838F
S11305908091C503882321F080917404806803C08E
S11305A0809174048F77809374046091770470E071
S11305B0660F771F6F5A7F4F42E050E083E794E065
S11305C00E94DB3D089543E050E06EE270E08EE46B
S11305D094E00E94DB3D6091770482E390E00E9406
S11305E0EB3D60914D0481E390E00E94EB3D60910E
S11305F064008DE290E00E94EB3D609163008CE228
S113060090E00E94EB3D609166008BE290E00E94D6
S1130610EB3D609165008AE290E00E94EB3D6091C1
S11306204A0489E290E00E94EB3D60914C0488E228
S113063090E00E94EB3D60914B0487E290E00E94C1
S1130640EB3D60913B048DE190E00E94EB3D6091B5
S1130650CA03660F86E290E00E94EB3D0895CF93B3
S113066043E050E06EE270E08EE494E00E94BD3D11
S113067082E390E00E94CD3D8093770481E390E093
S11306800E94CD3D80934D048DE290E00E94CD3DCB
S1130690809364008CE290E00E94CD3D80936300DF
S11306A08BE290E00E94CD3D809366008AE290E068
S11306B00E94CD3D8093650089E290E00E94CD3D8B
S11306C080934A0488E290E00E94CD3D80934C04DC
S11306D087E290E00E94CD3D80934B0486E290E057
S11306E00E94CD3DC82F8DE190E00E94CD3D8093C6
S11306F03B04C695C170C093CA03CF91089560911D
S1130700770470E0660F771F6F5A7F4F42E050E026
S113071083E794E00E94BD3DE3E7F4E08181982FF4
S1130720991F9927991F9093C5038F77818390917F
S11307307604911106C0EBE6F4E09091730495837E
S1130740868308958091CA03882389F080E290E02B
S11307500E94D53D9093100480930F048EE190E0A5
S11307600E94D53D9093120480931104089582E26F
S113077090E00E94D53D9093100480930F0484E28E
S113078090E00E94D53D9093120480931104089543
S1130790EF92FF920F931F93CF9310923E0400E0C9
S11307A010E00F2EFAECEF2EF4E0FF2EF02DC1E056
S11307B0C8010E94D53DF701819391937F01C093B5
S11307C03E04CF5F0E5F1F4FCF3091F7CF911F9143
S11307D00F91FF90EF900895CF93DF9380916C0475
S11307E08F7190E0880F991F855B9E4F0E94D53DC5
S11307F02091C503222309F441C040912B04509158
S11308002C0420E030E0ADE0B0E0E1E0F0E0BD0138
S1130810621B730BEC0102C0D695C7956A95E2F78B
S1130820C0FF0AC0BF01022E02C0660F771F0A94E0
S1130830E2F7462B572B0BC0BF01022E02C0660FF6
S1130840771F0A94E2F760957095462357232F5F2C
S11308503F4F2E303105D9F62EE020933E0496FF0B
S113086002C0506401C05F7B992314F4506801C036
S11308705F7750932C0440932B0404C090932C0472
S113088080932B04DF91CF9108958B9A8C9A8E9A42
S11308908D9A83EA8FBD82E08EBD08954F925F9258
S11308A06F927F92AF92BF92CF92DF92EF92FF92BC
S11308B00F931F93CF93DF93EC018B015A016A814D
S11308C070E080E090E00E94BF3920E030E048EC26
S11308D052E40E9417396B017C01B801110F880B97
S11308E0990B0E94C1399B01AC01C701B6010E945A
S11308F04D3A0E9489396B017C018B016B8170E058
S113090080E090E00E94BF3920E030E048EC52E4FF
S11309100E9417392B013C01B501BB0C880B990BC4
S11309200E94C1399B01AC01C301B2010E944D3A3E
S11309300E9489399B01DD2094F448815981D19426
S1130940C194D1084C155D0524F400271127041B1C
S1130950150B01501C4F19BD08BD939A09C048815D
S113096059814C155D050CF46A01D9BCC8BC939837
S1130970332394F44881598171956195710946171F
S1130980570724F422273327241B350B21503C4FCF
S11309903BBD2ABD969A09C028813981261737079D
S11309A00CF4B9017BBD6ABD9698DF91CF911F917C
S11309B00F91FF90EF90DF90CF90BF90AF907F901A
S11309C06F905F904F900895FC01662319F088B3EF
S11309D0816002C088B38E7F88BB44FF03C088B3A4
S11309E0886002C088B3877F88BB45FF03C088B393
S11309F0806102C088B38F7E88BB46FF03C088B382
S1130A00806202C088B38F7D88BB44231CF488B302
S1130A10806802C088B38F7788BBA381B4815C915E
S1130A2081E090E09C01058002C0220F331F0A94EC
S1130A30E2F7252B2C93A381B4812C91058002C06D
S1130A40880F991F0A94E2F7809582238C9340FFC4
S1130A5003C088B3886002C088B3877F88BB41FF26
S1130A6003C088B3806102C088B38F7E88BB42FF15
S1130A7003C088B3806202C088B38F7D88BB43FF04
S1130A8003C088B3806802C088B38F7788BBA38112
S1130A90B4814C9181E090E09C01058002C0220F5A
S1130AA0331F0A94E2F7242B2C93A381B4812C9155
S1130AB0058002C0880F991F0A94E2F7809582236B
S1130AC08C938FE891E00197F1F700C0000008953E
S1130AD0FC01C09860FF03C088B3886002C088B37B
S1130AE0877F88BB61FF03C088B3806102C088B37D
S1130AF08F7E88BB62FF03C088B3806202C088B364
S1130B008F7D88BB63FF03C088B3806802C088B34D
S1130B108F7788BBA381B4814C9121E030E0C90177
S1130B20058002C0880F991F0A94E2F7842B8C93E6
S1130B30A381B4818C91058002C0220F331F0A94D3
S1130B40E2F7209528232C938FE891E00197F1F7A1
S1130B5000C000000895462F61E00E94E404089557
S1130B60893008F088E0882341F08150682F67704D
S1130B7089E095E00E94AB05089560E289E095E084
S1130B800E94AB05089541E060E00E94E4048FEF09
S1130B909CE70197F1F700C000000895CF93DF931D
S1130BA0EC01E981FA81208181E090E00D8002C0AE
S1130BB0880F991F0A94E2F7822B8083B89ABB9A14
S1130BC0BC9ABD9ABF9A2FEF89EF90E021508040E4
S1130BD09040E1F700C0000063E0CE010E94680588
S1130BE08FEB9DE50197F1F700C0000063E0CE01B3
S1130BF00E9468058FEB9DE50197F1F700C00000A6
S1130C0063E0CE010E9468058FE99FE00197F1F748
S1130C1000C0000062E0CE010E9468058FE99FE0F9
S1130C200197F1F700C0000048E260E0CE010E94A5
S1130C30E4048FE19EE40197F1F700C0000048E06E
S1130C4060E0CE010E94E4048FE19EE40197F1F795
S1130C5000C00000CE010E94C3058FE19EE401970D
S1130C60F1F700C0000046E060E0CE010E94E40419
S1130C708FE19EE40197F1F700C0000047E160E0D6
S1130C80CE010E94E4048FE19EE40197F1F700C0D5
S1130C9000004CE060E0CE010E94E4048FE19EE499
S1130CA00197F1F700C00000DF91CF910895411141
S1130CB041E04295440F440F407C4058603108F0B5
S1130CC06FE0460F60E00E94E4040895AF92BF9283
S1130CD0CF92DF92EF92FF920F931F93CF93DF9304
S1130CE06C017C01EE24FF0CEE1CFF0CEE1CFF24B7
S1130CF00DE010E0C0E06894BB24B2F8D3E00F2EFE
S1130D00F7E0AF2EF02D04C001501109CE3069F187
S1130D10CF5F40E06C2F89E095E00E94570682E0A7
S1130D20E816F10488F4C601002E02C09695879552
S1130D300A94E2F780FD02C060E001C06A2D89E0F8
S1130D4095E00E94AB05E0CFC601002E02C0969547
S1130D5087950A94E2F780FD02C06D2F01C06B2DC8
S1130D6089E095E00E94AB05CFCF81E0E816F1045D
S1130D7081F048F082E0E816F10489F083E0E81697
S1130D80F10499F017C066E289E095E00E94AB0592
S1130D9011C06CE789E095E00E94AB050BC066E2E8
S1130DA089E095E00E94AB0505C06CE789E095E019
S1130DB00E94AB05DF91CF911F910F91FF90EF90AF
S1130DC0DF90CF90BF90AF900895EF92FF920F9372
S1130DD01F93CF93FB014081442371F08B017C016D
S1130DE0C0E061E0C7010E94E404CF5FF801EC0FAA
S1130DF0F11D40814111F5CFCF911F910F91FF90CB
S1130E00EF900895CF93DF93EB0189E095E00E9482
S1130E10C305BE0183EE93E00E94033B40E063E020
S1130E2089E095E00E94570663EE73E089E095E05F
S1130E300E94E5062FEF89E698E12150804090401A
S1130E40E1F700C0000089E095E00E94C305DF914E
S1130E50CF910895CF92DF92EF92FF920F931F9359
S1130E60CF93DF938C010F2EFCE6CF2EF3E0DF2E21
S1130E70F02DC0E4D8E0DC0F76014C2F60E0C8010F
S1130E800E94E404F70141917F0161E0C8010E94DE
S1130E90E404CF5FCD13F1CF40E060E0C8010E94CD
S1130EA05706F8E0CF0ED11CCD2FD03819F7DF91BB
S1130EB0CF911F910F91FF90EF90DF90CF90089505
S1130EC0A79AA69A17B8862F8670806C6170682BD3
S1130ED066B9349BFECF349A0895FC0185AD86171C
S1130EE018F485B3806802C085B38F7785BB85AD60
S1130EF0882329F0662319F085B3806402C085B382
S1130F008F7B85BB81E086AF85AD0895AF92BF929C
S1130F10DF92EF92FF920F931F93CF93DF93DC0145
S1130F20DE968C91DE97882309F49CC020E030E0A3
S1130F3081E0982F977097B995E39A95F1F700009F
S1130F40369A349BFECF349ADD964C91DD9764B18A
S1130F5075B1F901C7E04C9FE00DF11D1124EE0FAE
S1130F60FF1FEA0FFB1FFF96718360838F5F2F5F64
S1130F703F4F8830F1F6442309F46DC05F961C920C
S1130F801E925E978FEF93E05D969C938E935C9791
S1130F9081E0DC968C93DC978D01015C1F4FFD0191
S1130FA05D01DEE0AD0EB11C9D01D12C50E0E801E5
S1130FB0899199918E017901E90168A179A1861736
S1130FC0970718F0861B970B02C08D2D952FE7010C
S1130FD0998388832E5F3F4F2A153B0541F78D0186
S1130FE0055A1F4FBD01645E7F4FD12C50E0E801CC
S1130FF09A918A918E017501E50128A139A1821780
S1131000930718F0821B930B02C08D2D952FE701D7
S113101099838883D2E0AD0EB11CA616B70639F7C2
S1131020819191915E962D913C915F972817390794
S113103020F45F969C938E935E975C962D913C91E1
S11310405D978217930720F45D969C938E935C972B
S1131050E617F70729F781E04827DD964C93DD97DB
S1131060DE961C92DF91CF911F910F91FF90EF902C
S1131070DF90BF90AF9008952F923F924F925F926E
S11310806F927F928F929F92AF92BF92CF92DF9294
S1131090EF92FF920F931F93CF93DF931C015B0199
S11310A048011C2D6A01C61AD70ADC01CD92DC92D4
S11310B0C216D30678F46139714020F0FC01138222
S11310C01282B6C08FEF93E0D10113969C938E9356
S11310D01297AEC0DC015596ED91FC9156976E17B0
S11310E07F0728F456967C936E93559712C09B0104
S11310F03695279536952795ABE7B4E10E94E03AFB
S113110096958795E80FF91FD1015696FC93EE93B7
S11311105597D1015796ED91FC915897E417F5072F
S113112028F458965C934E93579712C09A013695BB
S1131130279536952795ABE7B4E10E94E03A96955A
S11311408795E81BF90BD1015896FC93EE935797BA
S1131150B60180E090E00E94BF392B013C01B4014C
S113116080E090E00E94BF3920E030E048EC52E497
S11311700E9417399B01AC01C301B2010E941739C7
S11311800E9490396A0D7B1DF1017383628350C004
S1131190899199918417950710F0308304C0C8167B
S11311A0D90608F010828191280FEE15FF0581F70A
S11311B0F10195818681892B9189892B21F482897A
S11311C0811101C020E0F101438954898DE090E050
S11311D001E0E1E0F0E0111106C0283048F03C9154
S11311E030273C9305C0123019F43C9130273C93CE
S11311F03D91332351F0BF01082E02C0660F771FC3
S11312000A94E2F7462B572B0BC0BF01082E02C0ED
S1131210660F771F0A94E2F760957095462357236B
S11312200197C8F6D10154965C934E9353971BC013
S1131230F10142815381960136952795ABE7B4E1DC
S11312400E94E03A969587956A01C81AD90ACE2D6C
S1131250DF2DD10115967101F3E1EF0EF11CFD01B3
S113126020E031E095CFDF91CF911F910F91FF9056
S1131270EF90DF90CF90BF90AF909F908F907F9032
S11312806F905F904F903F902F900895FC016530D0
S113129009F0BBC08389948995FF03C082EE8483DF
S11312A008959C0122273073232B19F086EE848342
S11312B0089594FF03C08AEE848308959C01222735
S11312C03871232B19F08EEE8483089593FF03C0A5
S11312D082EF848308959C0122273C70232B19F00C
S11312E086EF8483089592FF03C089EF8483089571
S11312F09C0122273670232B19F08AEF84830895EA
S113130091FF03C08BEF848308959C0122273370DF
S1131310232B19F08CEF8483089590FF03C08DEF85
S1131320848308959C0120783170232B19F08EEF6B
S11313308483089587FF03C08FEF848308959C01FD
S1131340207C3327232B11F01482089586FF03C0D9
S113135081E0848308959C0120763327203631056B
S113136019F482E08483089585FF03C083E08483B5
S113137008959C01207333272033310519F484E048
S11313808483089584FF03C085E0848308959C01C9
S1131390287133272831310519F486E084830895B0
S11313A083FF03C087E0848308959C012C70332756
S11313B02C30310519F48AE08483089582FF03C038
S11313C08EE0848308959C012670332726303105EE
S11313D019F482E18483089581FF03C086E1848344
S11313E008959C01237033272330310519F48AE1D1
S11313F08483089580FF03C08EE184830895892B3C
S113140009F0A4C48FE184830895663009F0BBC059
S11314108389948980FF03C08EE1848308959C01AD
S113142023703327232B19F08AE18483089581FFE5
S113143003C086E1848308959C0126703327232BFF
S113144019F082E18483089582FF03C08EE08483CF
S113145008959C012C703327232B19F08AE0848390
S1131460089583FF03C087E0848308959C01287155
S11314703327232B19F086E08483089584FF03C067
S113148085E0848308959C0120733327232B19F06E
S113149084E08483089585FF03C083E084830895F2
S11314A09C0120763327232B19F082E0848308954E
S11314B086FF03C081E0848308959C01207C332748
S11314C0232B11F01482089587FF03C08FEF8483C8
S11314D008959C01207831702038314019F48EEF42
S11314E08483089590FF03C08DEF848308959C0145
S11314F0222733702115334019F48CEF8483089527
S113150091FF03C08BEF848308959C0122273670DA
S11315102115364019F48AEF8483089592FF03C09D
S113152089EF848308959C0122273C7021153C4057
S113153019F486EF8483089593FF03C082EF8483B4
S113154008959C01222738712115384119F48EEE33
S11315508483089594FF03C08AEE848308959C01D4
S1131560222730732115304319F486EE84830895BD
S113157095FF03C082EE84830895892B09F0E6C3A6
S113158081EE84830895633009F0C1C0838994890E
S113159095FF03C082EE848308959C012227307353
S11315A0232B19F086EE8483089594FF03C08AEEFA
S11315B0848308959C0122273871232B19F08EEE21
S11315C08483089593FF03C082EF848308959C016C
S11315D022273C70232B19F086EF8483089592FF11
S11315E003C089EF848308959C0122273670232B3E
S11315F019F08AEF8483089591FF03C08BEF8483ED
S113160008959C0122273370232B19F08CEF8483D7
S1131610089590FF03C08DEF848308959C01207882
S11316203170232B19F08EEF8483089587FF03C054
S11316308FEF848308959C01207C3327232B11F0A2
S11316401482089586FF03C081E0848308959C0179
S1131650207633272036310519F482E084830895F7
S113166085FF03C083E0848308959C01207333279E
S11316702033310519F484E08483089584FF03C082
S113168085E0848308959C0128713327283131052E
S113169019F486E08483089583FF03C087E084837C
S11316A008959C012C7033272C30310519F48AE0FD
S11316B08483089582FF03C08EE0848308959C018F
S11316C0267033272630310519F482E18483089586
S11316D081FF03C086E1848308959C01237033272E
S11316E02330310519F48AE18483089580FF03C00F
S11316F08EE184830895892B09F028C38481823E76
S113170019F481EE848308958FE18483089564300D
S113171009F0C1C08389948980FF03C08EE184836A
S113172008959C0123703327232B19F08AE18483C5
S1131730089581FF03C086E1848308959C01267087
S11317403327232B19F082E18483089582FF03C099
S11317508EE0848308959C012C703327232B19F089
S11317608AE08483089583FF03C087E08483089517
S11317709C0128713327232B19F086E08483089574
S113178084FF03C085E0848308959C01207333277C
S1131790232B19F084E08483089585FF03C083E03C
S11317A0848308959C0120763327232B19F082E04B
S11317B08483089586FF03C081E0848308959C0197
S11317C0207C3327232B11F01482089587FF03C054
S11317D08FEF848308959C01207831702038314044
S11317E019F48EEF8483089590FF03C08DEF8483F2
S11317F008959C01222733702115334019F48CEF8E
S11318008483089591FF03C08BEF848308959C0122
S1131810222736702115364019F48AEF84830895FF
S113182092FF03C089EF848308959C0122273C70B2
S113183021153C4019F486EF8483089593FF03C077
S113184082EF848308959C01222738712115384141
S113185019F48EEE8483089594FF03C08AEE848382
S113186008959C01222730732115304319F486EE24
S11318708483089595FF03C082EE84830895892BA1
S113188009F064C284818E3119F48FE18483089550
S113189081EE84830895623009F0CBC083899489F2
S11318A095FF03C082EE8483089580FF03C08EE118
S11318B0848308959C01222730732115304319F441
S11318C086EE848308959C012370332723303105E9
S11318D019F48AE18483089594FF03C08AEE848313
S11318E0089581FF03C086E1848308959C01222723
S11318F038712115384119F48EEE848308959C01C2
S1131900267033272630310519F482E18483089543
S113191093FF03C082EF8483089582FF03C08EE0A7
S1131920848308959C0122273C7021153C4019F4BE
S113193086EF848308959C012C7033272C30310565
S113194019F48AE08483089592FF03C089EF8483A5
S1131950089583FF03C087E0848308959C012227B0
S113196036702115364019F48AEF848308959C015A
S1131970287133272831310519F486E084830895CA
S113198091FF03C08BEF8483089584FF03C085E037
S1131990848308959C01222733702115334019F460
S11319A08CEF848308959C01207333272033310501
S11319B019F484E08483089590FF03C08DEF848339
S11319C0089585FF03C083E0848308959C012078F3
S11319D031702038314019F48EEF848308959C01CE
S11319E0207633272036310519F482E08483089564
S11319F087FF03C08FEF8483089586FF03C081E0CF
S1131A00848308959C01207C3327203C310511F404
S1131A1014820895892B09F099C184818E3119F4B7
S1131A208FE184830895823E09F090C181EE84831E
S1131A300895613009F0C2C0838994899C01207C97
S1131A403327203C310511F41482089587FF03C025
S1131A508FEF8483089586FF03C081E08483089513
S1131A609C01207831702038314019F48EEF848342
S1131A7008959C01207633272036310519F482E03D
S1131A808483089590FF03C08DEF8483089585FFB8
S1131A9003C083E0848308959C01222733702115B9
S1131AA0334019F48CEF848308959C012073332709
S1131AB02033310519F484E08483089591FF03C031
S1131AC08BEF8483089584FF03C085E084830895A5
S1131AD09C01222736702115364019F48AEF84833D
S1131AE008959C01287133272831310519F486E0C3
S1131AF08483089592FF03C089EF8483089583FF4C
S1131B0003C087E0848308959C0122273C7021153B
S1131B103C4019F486EF848308959C012C7033278C
S1131B202C30310519F48AE08483089593FF03C0AF
S1131B3082EF8483089582FF03C08EE08483089536
S1131B409C01222738712115384119F48EEE8483C3
S1131B5008959C01267033272630310519F482E15B
S1131B608483089594FF03C08AEE8483089581FFDB
S1131B7003C086E1848308959C01222730732115D4
S1131B80304319F486EE848308959C01237033272F
S1131B902330310519F48AE18483089595FF03C045
S1131BA082EE8483089580FF03C08EE184830895C8
S1131BB0892B09F0CBC087E08483089583899489B5
S1131BC09C01207C3327203C310511F414820895B4
S1131BD087FF03C08FEF8483089586FF03C081E0ED
S1131BE0848308959C01207831702038314019F4A1
S1131BF08EEF848308959C012076332720363105A7
S1131C0019F482E08483089590FF03C08DEF8483E8
S1131C10089585FF03C083E0848308959C012227EF
S1131C2033702115334019F48CEF848308959C019B
S1131C30207333272033310519F484E08483089515
S1131C4091FF03C08BEF8483089584FF03C085E074
S1131C50848308959C01222736702115364019F497
S1131C608AEF848308959C01287133272831310534
S1131C7019F486E08483089592FF03C089EF848376
S1131C80089583FF03C087E0848308959C0122277D
S1131C903C7021153C4019F486EF848308959C011F
S1131CA02C7033272C30310519F48AE0848308958D
S1131CB093FF03C082EF8483089582FF03C08EE004
S1131CC0848308959C01222738712115384119F421
S1131CD08EEE848308959C012670332726303105C7
S1131CE019F482E18483089594FF03C08AEE848307
S1131CF0089581FF03C086E1848308959C0122270F
S1131D0030732115304319F486EE848308959C01C1
S1131D10237033272330310519F48AE1848308952D
S1131D2095FF03C082EE8483089580FF03C08EE193
S1131D3084830895892B51F484818E3119F48FE1C1
S1131D4084830895823E11F481EE84830895CF92B2
S1131D50DF92EF92FF92CF938091C403882309F41A
S1131D60A5C48091C603882319F081E080934104BF
S1131D70929A81E08093C70380914C04909142042D
S1131D80981708F4DCC380934204809141048111C4
S1131D903BC0979890917304809147048917D8F0B9
S1131DA080917504811107C085E08093410481E02E
S1131DB0809361001DC0809145048F5F809345042A
S1131DC091E09093CE03809141048F5F809341040E
S1131DD0909361000DC08091740490E0880F991F66
S1131DE090933204809331049093300480932F04B1
S1131DF010924604109249041092430481E08093A7
S1131E00390410923A0442C1813009F03FC1979AD3
S1131E108091CD03882309F492C060E08DE894E0BA
S1131E200E9446091092CD038091C603811154C0CB
S1131E3080912B0490912C049C0124E0329F212D4D
S1131E403327112421303105C9F038F0223031050F
S1131E5021F12330310581F13FC02091A00430915C
S1131E60A104209530959F7382239323892BA1F598
S1131E70809141048F5F809341042EC02091A0047F
S1131E803091A104822393239F73892B29F180919C
S1131E9041048F5F809341041FC02091A0043091BE
S1131EA0A104822393239F73892BB1F4809141046D
S1131EB08F5F8093410410C02091A0043091A1044D
S1131EC0209530959F7382239323892B29F0809149
S1131ED041048F5F8093410440919104242F042E88
S1131EE0000C330B80913304B901681B710987FD21
S1131EF07395CB01EEE4F4E05181589FB001599FF2
S1131F00700D11245081529FC001539F900D1124D4
S1131F10860F971F90932E0480932D048091400484
S1131F20853020F0109240044093330480914104A2
S1131F30823028F01092430481E080936100809104
S1131F405004882321F0813009F44DC081C02091D0
S1131F502D0430912E04332384F480914D0490E0B9
S1131F60880F991F280F391F3093320420933104AE
S1131F709093300480932F040FC080914D0490E01F
S1131F80880F991F9093320480933104821B930B22
S1131F909093300480932F0480919104813E81F4C6
S1131FA088E39FEF909332048093310480914D0431
S1131FB090E0880F991F9093300480932F0448C0B9
S1131FC08F3109F045C080914D0490E0880F991F2E
S1131FD0909332048093310488E39FEF909330040C
S1131FE080932F0435C080914D0490E0880F991F91
S1131FF020912D0430912E04AC01420F531F5093B5
S1132000320440933104821B930B909330048093E9
S11320102F0480919104813E69F488E39FEF9093AB
S113202032048093310488EC90E0909330048093E0
S11320302F040EC08F3161F488EC90E09093320449
S11320408093310488E39FEF9093300480932F04AE
S113205080914B0490914304981780F0882371F089
S11320608091C60381110AC085E08093410481E018
S11320708093CC03809361008093C2031092780410
S1132080109246041092490410923A04809141043B
S1132090823009F0CCC0979880916B048F708730A0
S11320A051F1883009F444C0863009F048C0809169
S11320B04604803540F0809141048F5F8093410451
S11320C081E080936100E4E3F4E0ABE6B4E01296CF
S11320D08C911297808313968C9113978183149615
S11320E08C91828310923204109231041092300445
S11320F010922F0490C081E08093CE03EBE6F4E0CD
S1132100838180934504928190934404811108C093
S1132110109241041092430481E0809361007BC0DB
S113212081E080934104109243048093610073C062
S113213085E08093410481E0809361006CC08091CC
S1132140CD03882379F06091720470E075956795EA
S11321507595679575956795759567958DE894E080
S11321600E94460990916D0480914604891708F4F1
S11321703FC080916B0490E09595879595958795E0
S11321809595879595958795181619064CF5FC0134
S1132190E357FB4F8481811104C081E0809378046C
S11321A00CC080917804813041F4809141048F5FA8
S11321B08093410481E08093610080914B0490916D
S11321C043049817A8F0882399F085E0809341048C
S11321D081E08093CC03809361008093C20308C0A4
S11321E0809141048F5F8093410481E0809361007A
S11321F0EBE6F4E08481880F990B9093320480938A
S113220031048381880F990B9093300480932F04B9
S113221082E080933904109247041092480410928B
S1132220330410922E0410922D0410923A048091DB
S11322304104833009F007C1979880916B048F7033
S1132240863021F580914704883240F08091410422
S11322508F5F8093410481E080936100E4E3F4E0C4
S1132260ABE6B4E015968C911597808316968C9105
S11322701697818317968C91828310923204109260
S113228031041092300410922F04D5C08091CD03F4
S11322908823D9F16091720470E0759567957595FE
S11322A0679575956795759567958DE894E00E9497
S11322B046091092CD0340919104242F042E000C62
S11322C0330B80913304B901681B710987FD739541
S11322D0CB01E1E5F4E05181589FB001599F700DA5
S11322E011245081529FC001539F900D1124860FD9
S11322F0971F90932E0480932D04809140048B3477
S113230020F0109240044093330480917004909123
S11323104704981778F0909141049F5F909341048B
S113232091E090936100882309F485C081E0809353
S1132330390481C08091710490E0880F991F9093B3
S11323400C0480930B0420915304222321F02130A8
S113235009F441C070C020912D0430912E04332320
S11323605CF4280F391F3093320420933104909386
S1132370300480932F040AC0909332048093310474
S1132380821B930B9093300480932F0480919104CB
S1132390813E79F488E39FEF909332048093310473
S11323A080910B0490910C049093300480932F043B
S11323B042C08F3109F03FC080910B0490910C040E
S11323C0909332048093310488E39FEF9093300418
S11323D080932F0430C020912D0430912E04AC0141
S11323E0420F531F5093320440933104821B930BCA
S11323F09093300480932F0480919104813E69F47A
S113240088E39FEF909332048093310488EC90E04A
S11324109093300480932F040EC08F3161F488ECC4
S113242090E0909332048093310488E39FEF90937B
S1132430300480932F0410924604109249041092A1
S1132440430410923A0480914104843029F597980A
S11324508091450490917504891738F085E0809344
S1132460410481E08093610008C08F5F809345043C
S113247081E0809341048093610081E08093CE03E6
S11324801092460410924904109247041092480492
S11324901092430410923A0480914104853008F468
S11324A067C0979881E08093C2038091150490914E
S11324B016049093140480931304809139048823A0
S11324C0D9F120913A0490913B04291740F58230C8
S11324D0D9F480916F0488231CF088E39FEF02C035
S11324E088EC90E0909332048093310480916E04E0
S11324F088231CF088E39FEF02C088EC90E090935F
S1132500300480932F0434C08CE99FEF90933204FD
S1132510809331049093300480932F0429C0109247
S1132520C4031092320410923104109230041092B9
S11325302F04109239041CC01092C40319C0979A36
S113254010924604109249041092470410924804D1
S11325501092430410923304109240041092140415
S1132560109213041092CC031092390410923A047E
S113257080910D0490910E04C0914A04CC2309F477
S113258051C068E371E3681B790B32F5719561956D
S11325907109072E000C880B990B0E94C13920E0A9
S11325A030E04AE754E40E9417396B017C016C2F38
S11325B070E080E090E00E94C13920E030E040E229
S11325C051E40E9417399B01AC01C701B6010E9476
S11325D04D3A6B017C012DC0161617063CF5072EEB
S11325E0000C880B990B0E94C13920E030E048ECC4
S11325F052E40E9417396B017C016C2F70E080E07B
S113260090E00E94C13920E030E040E251E40E94B1
S113261017399B01AC01C701B6010E944D3A6B0109
S11326207C0107C0C12CD12C760103C0C12CD12C54
S113263076016091650070E080E090E00E94C1390D
S1132640A70196010E94AB380E949039C62F609171
S1132650660070E080E090E00E94C139A701960115
S11326600E94AB380E949039E6EAF4E08FEF93E0E1
S1132670918380836283C38340912F0450913004FB
S1132680CA01880F991F880F991F480F591F60911D
S1132690310470913204CB01880F991F880F991F60
S11326A0680F791FCF010E944E0435C09298979805
S11326B010924204209185048091C90390E0820F16
S11326C0911D079721F480918404823041F040E009
S11326D050E060E070E086EA94E00E944E041092BC
S11326E03204109231041092300410922F0410928C
S11326F04604109249041092470410924804109220
S1132700330410924004109216041092150410928F
S11327103C0410923A04CF91FF90EF90DF90CF9059
S11327200895982F967098608170892B83BF6CBF31
S113273082E089BF0895FF920F931F93CF93DF9395
S1132740EC01F62E072F142F8B819C81DC01ED9177
S1132750FC910280F381E02D6A8109958B819C8133
S1132760DC01ED91FC910680F781E02D602F099545
S1132770082F8B819C81DC01ED91FC910680F7810F
S1132780E02D6F2D099508238B819C81DC01ED914F
S1132790FC910680F781E02D612F099508238B8138
S11327A09C81DC01ED91FC910084F185E02D09957B
S11327B00023B1F08B819C81DC01ED91FC910280BE
S11327C0F381E02D6A810995182F8B819C81DC01AE
S11327D0ED91FC910084F185E02D0995112351F3CD
S11327E0802FDF91CF911F910F91FF9008950F9348
S11327F01F93CF93DF93EC01162F072F8B819C81BE
S1132800DC01ED91FC910280F381E02D6A81099550
S11328108B819C81DC01ED91FC910680F781E02D98
S1132820602F09958B819C81DC01ED91FC910680E0
S1132830F781E02D612F09958B819C816A8161600C
S1132840DC01ED91FC910280F381E02D0995882350
S113285061F08B819C81DC01ED91FC910480F58118
S1132860E02D60E00995182F01C010E08B819C8158
S1132870DC01ED91FC910084F185E02D0995812F17
S1132880DF91CF911F910F910895FF920F931F93A2
S1132890CF93DF93EC018B01F42E0E94F7138F1575
S11328A031F04F2DB801CE010E949B1301C080E08E
S11328B0DF91CF911F910F91FF900895CF92DF92F6
S11328C0EF92FF920F931F93CF93DF93211531055E
S11328D091F06C018A01020F131FEA017B01E41AD3
S11328E0F50AB7016C0F7D1FC6010E94F713899387
S11328F0C017D107B1F7DF91CF911F910F91FF90CE
S1132900EF90DF90CF900895609176046623D9F01C
S113291070E061507109660F771F660F771F660FAD
S1132920771FE82FF0E0EE0FFF1FE95EFB4F808179
S11329309181680F791F28E030E04BE654E086E887
S113294094E00E945E140895CF93DF938091CE03A8
S11329508823F1F11092CE03D0917604C0917704CC
S11329608091440480937704909145049093760475
S11329700E9484140E947F038091770490E08F5B0F
S11329809E4F0E94CD3D80937504809172048F7098
S113299090E0BC01660F771F680F791F6D5C7F4F55
S11329A043E050E081E594E00E94BD3D0E94EC03C9
S11329B09091450480917504891730F485E08093E3
S11329C0410481E080936100D0937604C09377043E
S11329D0DF91CF910895AF92BF92CF92DF92FF9291
S11329E00F931F93CF93DF9321153105B1F06A0143
S11329F05C018A01C20ED31EC62FD72FFF24F39485
S1132A00F80141918F01BE01C5010E944514F822CD
S1132A1021960C151D05A1F702C0FF24F3948F2DF8
S1132A20DF91CF911F910F91FF90DF90CF90BF90D6
S1132A30AF900895609176046623D9F070E06150F8
S1132A407109660F771F660F771F660F771FE82FD0
S1132A50F0E0EE0FFF1FE95EFB4F80819181680F6C
S1132A60791F28E030E04BE654E086E894E00E94C9
S1132A70EB140895CF93DF93D0917604E6E5F4E068
S1132A808BE694E011928E179F07E1F7C5E1C0939E
S1132A907804109255041092760448E06AEB73E0CF
S1132AA08BE694E00E940902109275046091770409
S1132AB0C69FB00111246B597F4F45E150E086E574
S1132AC094E00E94DB3D8091770490E0609155048E
S1132AD0895C9E4F0E94EB3D1092C5030E94B9028F
S1132AE08091770490E0609175048F5B9E4F0E9403
S1132AF0EB3D81E080937604809177040E941A155F
S1132B00809176048F5F809376048536A8F3D09302
S1132B107604DF91CF9108951F93CF93DF93EC0157
S1132B208B819C81DC01ED91FC910280F381E02D8D
S1132B306A810995182F8B819C81DC01ED91FC91B0
S1132B400084F185E02D0995812FDF91CF911F91AC
S1132B5008951F920F920FB60F9211248F938091B4
S1132B601F058F5F80931F058F910F900FBE0F90ED
S1132B701F901895CF93DF9300D000D01F92CDB74C
S1132B80DEB7979A0E94F9018CE080B911B869E127
S1132B9083E00E94911386EA94E00E94450467E072
S1132BA08AEA94E00E94600789E095E00E94CE05DD
S1132BB089E095E00E942A0792988091860490917A
S1132BC08704E7E1F4E04BE254E09C012193319364
S1132BD0205E3C4FE417F507C9F7805C904E909354
S1132BE087048093860486E894E00E948C15898388
S1132BF081110DC040E062E089E095E00E94570633
S1132C006BE670E089E095E00E94E506FFCFC69888
S1132C10BE9AAB9AA398C698BE9AAB9AA39893B35C
S1132C20EBE7F4E081E095FB992790F998279083EE
S1132C3093B392FB992790F99827918393B3929534
S1132C40917089278283C69ABE98AB98A39AC69A34
S1132C50BE98AB98A39A93B381E0092F007194FDB9
S1132C6080E080937E0483B391E082FB882780F91F
S1132C70892780937F0483B385FB882780F998276D
S1132C80909380048CE190E00E94CD3D182F8091B8
S1132C907D04882311F0002319F0113009F43BC29C
S1132CA040E062E089E095E00E94570668E770E042
S1132CB089E095E00E94E5062FEF33ED40E32150D3
S1132CC030404040E1F700C0000021E093B383B3FB
S1132CD0929591709213FACF829581708213F6CFF8
S1132CE089E095E00E94C305113019F054E05A833D
S1132CF002C061E06A83E12CFF24F39401C01A83CB
S1132D0089E095E00E94C30541E063E089E095E035
S1132D100E94570665E870E089E095E00E94E506A8
S1132D201A811150143060F440E064E089E095E0C9
S1132D300E9457066BE870E089E095E00E94E50682
S1132D408A81813069F441E069E089E095E00E947C
S1132D50570664E970E089E095E00E94E5062FC01B
S1132D609A81923069F441E069E089E095E00E943B
S1132D7057066AE970E089E095E00E94E5061FC005
S1132D80EA81E33069F441E069E089E095E00E947A
S1132D90570660EA70E089E095E00E94E5060FC0FE
S1132DA0FA81F43061F441E069E089E095E00E9441
S1132DB0570666EA70E089E095E00E94E50601E0C6
S1132DC02A81211101C000E080E0D02E1FC0002321
S1132DD0E1F089E095E00E94C30540E064E089E009
S1132DE095E00E9457066BE870E089E095E00E9448
S1132DF0E5064F2D64E089E095E00E9457066CEAF1
S1132E0070E089E095E00E94E5068D2D9C9BFECF45
S1132E109C9BFCCF9A9BFACF9D9BF8CF3FEF49EF49
S1132E2050E0315040405040E1F700C000008111B3
S1132E301EC0C698BE9AAB9AA39865E36A95F1F74B
S1132E4000009A9B02C00C94FB367A81743010F017
S1132E500C94FB360C94F7369A81923010F40C944F
S1132E60FF364DCFEA81E111B2CFEF2CB0CFC69837
S1132E70BE9AAB9AA398F5E3FA95F1F700009C9BF0
S1132E8002C0EE20F1F089E095E00E94C30540E025
S1132E9065E089E095E00E94570664EB70E089E004
S1132EA095E00E94E5062FEF35EA4EE021503040D0
S1132EB04040E1F700C0000089E095E00E94C305AE
S1132EC02AC1882309F4B3CFC69ABE98AB98A39AB3
S1132ED055E35A95F1F700009C99A9CF89E095E054
S1132EE00E94C30540E063E089E095E00E94570634
S1132EF06BEB70E089E095E00E94E5067A81713021
S1132F0021F0743011F00C940D37EEE4F4E09AE003
S1132F10908384E1818312821092770428E22093C3
S1132F204D04809364009093630094E6909366004C
S1132F30909365009DE090934A0480934C0485E04F
S1132F4080934B0483E280933B0481E08093CA0323
S1132F50EAECF4E086EE94E0119211928E179F074A
S1132F60D9F78EE080933E040E94E3020E94780227
S1132F7060E971E080E290E00E94FC3D64EB70E067
S1132F808EE190E00E94FC3D6FEF73E082E290E0FE
S1132F900E94FC3D60E070E084E290E00E94FC3D11
S1132FA04A81423011F40C941437443009F05EC065
S1132FB001E514E083E0F80180838AE081831282D2
S1132FC043E050E063E370E0C8010E94DB3D81E12F
S1132FD0F80180838EE18183128281E080937804FA
S1132FE081E090E0BC01660F771F860F971FBC013C
S1132FF06D5C7F4F43E050E081E594E00E94DB3D4F
S1133000E1E5F4E080818D5F808381818B5F818342
S1133010809178048F5F80937804853010F38FE07B
S1133020808380E5818381E0828385E080937804D6
S113303090E0BC01660F771F860F971FBC016D5C83
S11330407F4F43E050E081E594E00E94DB3DE1E501
S1133050F4E080818E5F808381818C5E81838091A6
S113306078048F5F809378048A3010F34A81435048
S1133070423008F043C060E070E08BE491E00E94CD
S1133080FC3D81E08093780490E0FC01EE0FFF1F8B
S1133090E85EFE4F65917491880F991F855B9E4F82
S11330A00E94FC3D809178048F5F809378048C307B
S11330B058F38CE08093780490E0880F991F60E0C7
S11330C070E0855B9E4F0E94FC3D809178048F5F89
S11330D0809378048F3180F3109277040E943A151C
S11330E0809177048F5F809377048A30B8F31092CD
S11330F0770461E08CE190E00E94EB3D5FEF65EACC
S11331007EE0515060407040E1F700C0000089E06B
S113311095E00E94C3050E942F0380917704E82F55
S1133120F0E0FD83EC83CF01895C9E4F0E94CD3D8E
S11331308093550485E12C813D81829FB001839F5A
S1133140700D11246B597F4F45E150E086E594E002
S11331500E94BD3D0E94A2030E94C80380916500A5
S113316090916600E6EAF4E02FEF33E031832083A8
S11331709283838340E066E089E095E00E945706ED
S113318066EC70E089E095E00E94E50641E065E0C8
S113319089E095E00E9457066BEC70E089E095E0C9
S11331A00E94E5063FEF45EA5EE031504040504062
S11331B0E1F700C0000089E095E00E94C3059798FC
S11331C0EBE7F4E0108211821282138214821582DA
S11331D086E0809378047894DD24D3940F2EFBE664
S11331E06F2EF4E07F2EF02D0F2EF4E3AF2EF4E0DB
S11331F0BF2EF02D0F2EF1E84F2EF4E05F2EF02DB0
S1133200298088248394912C6A827B8280911F0573
S1133210882349F190911F0580918204890F80933E
S1133220820490911F0520913F04920F90933F04D4
S113323090911F0520914004920F9093400486952D
S11332408695869590914804980F909348049091A0
S11332504904980F9093490490913A04890F8093FC
S11332603A0410921F05809182048830A0F086955C
S11332708695869590913D04980F90933D04909186
S11332803C04980F90933C0490913704890F8093E9
S113329037041092820480913D048A3060F080915A
S11332A081048F5F80938104809142048F5F8093B7
S11332B0420410923D0480913C048436C0F0909105
S11332C043049F5F9093430499E2899F812D1124C5
S11332D082958F702091150430911604B901680FFE
S11332E0711D709316046093150410923C04809130
S11332F0490460916300861748F00E94BA3A90919D
S11333004604890F8093460410924904809148042E
S113331060916400861748F00E94BA3A909147047D
S1133320890F80934704109248040E94A41480914A
S11333303F04843108F4C7C09091C703992311F462
S11333400C94363710923F048AEA94E00E94860770
S11333506D2D8AEA94E00E946D076D2D8AEA94E04F
S11333600E946D07882309F454C08091C40381111D
S113337050C00C942E3710923704C29A909A919AA6
S113338020E030E0A901F501808190E083962817C0
S113339039070CF0C298F501818190E083964817B3
S11333A059070CF09098F501828190E083964817B4
S11333B059070CF09198F5E3FA95F1F700002F5FA7
S11333C03F4F203F3105F1F6C298909891988FEFC6
S11333D098E10197F1F700C0000006C0EFE7FEE3B3
S11333E03197F1F700C000000E9453028C010E9443
S11333F05302800F911F9695879520910D0430916B
S11334000E04820F931F9695879590930E048093D4
S11334100D04EAEAF4E084AD14AE882309F49BC0F9
S11334208091CA03882311F1F301818190E095957D
S11334308795959587959595879595958795959570
S11334408795009111041091120420910F0430917A
S11334501004EAEAF4E0468D578D648D758DC82E0C
S11334607F018DE894E00E943C0824C0F30181812F
S113347090E09595879595958795959587959595DC
S11334808795959587954091110450911204609108
S11334900F0470911004C82E0F2EFAEAEF2EF4E0F8
S11334A0FF2EF02D04EB10E020E931E08DE894E0EC
S11334B00E943C088091C403811102C0D092610033
S11334C0D092CD0348C0883C70F18091C70381112C
S11334D042C060E08AEA94E00E946D070E945302B1
S11334E08C010E945302800F911F9695879520911D
S11334F00D0430910E04820F931F96958795909337
S11335000E0480930D04209185048091C90390E0FA
S1133510820F911D0897FCF08091840481111BC0D7
S1133520D092610018C08091C703811114C020910A
S113353085048091C90390E0820F911D089724F0BF
S113354080918404882339F060E08AEA94E00E9440
S11335506D0710923F040E94A70EC698BE9AAB9ABC
S1133560A398C698BE9AAB9AA39883B385FB882781
S113357080F98D25EBE7F4E0808323B322FB222737
S113358020F92D2520937C0433B3329531703D25E9
S113359030937D04C69ABE98AB98A39AC69ABE98F7
S11335A0AB98A39A93B392959170892F8D258093AC
S11335B07E0493B392FB992790F9492F4D254093AC
S11335C07F0493B395FB992790F99D2590938004EC
S11335D05081252B322B832B842B892B11F00C94B7
S11335E03C371092810480917A04813019F0843040
S11335F009F050C010927A044DC0942B292BC9F0C5
S1133600823320F08FE28093810411C080917A0488
S1133610813069F4EBE7F4E0108210927C0410929C
S11336207D0410927E0410927F0410928004D09244
S11336307A0480917D0490917E04282F292BC1F176
S1133640209181042E3190F020917A04225022306E
S113365048F4880F80937D04990F90937E0484E04E
S113366080937A048EE18093810422C020917A04AD
S113367021111EC0882331F082E080937A049111D5
S113368005C028C0992311F40C94443783E0809337
S11336907A0428C0EBE7F4E0108210927C041092C4
S11336A07D0410927E0410927F041092800404C062
S11336B080917D0481110AC080917A04823031F4B2
S11336C083E080937D0410927A040CC080917E0480
S11336D0811108C080917A04833021F480937E04A0
S11336E010927A04EBE7F4E090E08191815083300A
S11336F008F4922D4E165F06C1F79093C80380918B
S11337007D04813021F080917E04813041F4109257
S1133710C80380918504882391F00C9454388091D7
S11337208504882341F090913804911104C090914C
S1133730C603992379F09091C80391110BC090911D
S1133740C303911107C09091C203911103C0D09299
S1133750C70306C01092C7039091C803911106C015
S113376090913804992311F40C943C2B1092C803C3
S1133770D09261009091840491110C94493788236C
S113378011F40C9449379091830491110C947E3870
S1133790EBE7F4E09081913079F49091C903992397
S11337A029F0893018F48F5F80938504D092C9037F
S11337B089E095E00E94C30580917C04813089F4FE
S11337C08091C903811107C080918504823018F06B
S11337D08150809385041092C90389E095E00E948A
S11337E0C30580917D04833051F4109285041092B6
S11337F0C90310927D0489E095E00E94C30580917D
S11338008504E091C903F0E0E80FF11DEB30F10508
S113381010F00C943C2BE65DFF4F0C94DA3A809147
S1133820C403811179C08091CB03811175C080914B
S11338307E048330A9F40E942F038091770490E0E2
S11338408F5B9E4F0E94CD3D809375040E947F0341
S1133850D09285041092C90389E095E00E94C305C3
S113386080917F04882371F060915504643150F491
S11338706F5F609355048091770490E0895C9E4F5C
S11338800E94EB3D80918004882371F0609155047F
S1133890662351F06150609355048091770490E061
S11338A0895C9E4F0E94EB3D80917D04833011F032
S11338B00C943C2B89E095E00E94C3051092C3034D
S11338C080910D0490910E0489319E4230F4D0927F
S11338D0CB03D092C3030C943C2BD092C403E0914D
S11338E05504F0E0EA5AFB4F80818093450490919F
S11338F0770490934404811103C01092410402C0E0
S1133900D0924104D092CE03D092CB031092CC0338
S1133910109291040C943C2B20917F04809180049C
S1133920822B282F30E0C40140917E04433011F0F3
S113393080E090E0822B932BEBE7F4E03081209140
S11339407C04322B20917D04232B822B892B11F4B0
S11339500C943C2B1092800410927F0410927E04ED
S113396010927D0410927C0410821092C403109271
S1133970CB03D092C7031092C3031092C20389E011
S113398095E00E94C3050C943C2B109183041123F1
S113399011F40C9474370091840401110C946A3767
S11339A0EBE7F4E02081812F90E0820F911D2091BC
S11339B07C04821B91091816190634F4843091058D
S11339C024F083E090E001C08D2D809383048091E6
S11339D07D04833031F41092830489E095E00E94E1
S11339E0C30580918304813009F07EC0209178045E
S11339F080917F0490E0820F911D20918004821BAE
S1133A00910912F40C9461378A30910514F089E01D
S1133A1090E0082F8093780480917E04833011F025
S1133A200C943C2BF090770410917604D092760499
S1133A308F2D0E948414802F0E941A158091760481
S1133A408F5F80937604853698F3109376046091A3
S1133A50770415E1169FB00111246B597F4F45E19E
S1133A6050E086E594E00E94BD3D8091770490E0AB
S1133A70895C9E4F0E94CD3D809355040E947F0334
S1133A808091770490E08F5B9E4F0E94CD3D8093A0
S1133A90750400937704109FB00111246B597F4F74
S1133AA045E150E086E594E00E94DB3D8091770497
S1133AB090E060915504895C9E4F0E94EB3D0E940A
S1133AC0B9028091770490E0609175048F5B9E4FFA
S1133AD00E94EB3DF09277041092830489E095E014
S1133AE00E94C3050C943C2B823009F0D4C0809111
S1133AF07E04833011F00C943C2BE0907604D09239
S1133B0076046894FF24F2F803E012E00F2EF7E045
S1133B10CF2EF02D809177040E948414F3018081CC
S1133B208F70282F30E0253031050CF095C081309E
S1133B3019F0823021F006C01093780405C0D092A9
S1133B40780402C080937804409178046FE08A81FD
S1133B509B810E941B02F3018081E82FF0E0F59520
S1133B60E795F595E795F595E795F595E7953197FB
S1133B70EE30F105B8F5EB5CFF4F0C94DA3A8EE0C9
S1133B808093780433C08DE0809378042FC0FCE0E8
S1133B90F09378042BC02BE02093780427C03AE0FC
S1133BA03093780423C049E0409378041FC058E060
S1133BB0509378041BC0C092780418C066E06093E8
S1133BC0780414C075E07093780410C0F0927804FF
S1133BD00DC0009378040AC01093780407C0D092F3
S1133BE0780404C082958F7080937804409178049F
S1133BF04295407F60EF8A819B810E941B02F30102
S1133C008781282F30E0359527953595279535956B
S1133C102795359527952330310521F0243031053A
S1133C2021F006C0F092780407C00093780404C021
S1133C3082958F7080937804409178044295407FF8
S1133C4060EF82E794E00E941B02F301838180937A
S1133C507804948193838483809177040E941A1555
S1133C60809176048F5F80937604853608F452CF72
S1133C700E947F038091C5038D258093C5030E9414
S1133C80B902E09276041092830489E095E00E94E0
S1133C90C3050C943C2B80917E04833011F00C946A
S1133CA03C2B0E943A151092830489E095E00E940F
S1133CB0C3050C943C2B893038F4853008F001C2DC
S1133CC0813038F40C943C2B8D3008F482C30C946E
S1133CD03C2B10926000909176049923D1F090913E
S1133CE07C04EBE7F4E04081292F30E0280F311DFC
S1133CF0241B31091216130634F4253031052CF433
S1133D00890F841B03C084E001C08D2D809384043B
S1133D1019C090917C04EBE7F4E04081292F30E056
S1133D20280F311D241B31091216130634F42430D4
S1133D3031052CF4890F841B03C083E001C08D2D51
S1133D408093840480917D04833071F4D092600068
S1133D5010928404809177040E941A150E94B9027B
S1133D6089E095E00E94C305F30180818F7088305B
S1133D7099F080917E04833079F4D0926000809130
S1133D807604882311F40C947C3785E080938404B2
S1133D9089E095E00E94C30580918404823009F48F
S1133DA065C020F4813051F00C943C2B833009F42D
S1133DB018C1843009F45EC10C943C2B80917F04BB
S1133DC08130B9F480917604843698F48091770434
S1133DD00E941A150E94B902809176048F5F809325
S1133DE07604809177040E9484140E94EC0310925C
S1133DF0600080918004813001F5809176048823ED
S1133E0011F40C943C2B809177040E941A15809134
S1133E107604815080937604809177040E94841400
S1133E200E947F030E94EC038091760481110C941C
S1133E309337D09260000C943C2B80917E048230A6
S1133E4011F00C943C2B80917604882311F40C948B
S1133E503C2BD0926000D0928304809378046AE76C
S1133E6071E083E00E9402070C943C2B809176045D
S1133E70811116C0F301258180917F0490E0820FA7
S1133E80911D20918004821B910932F08F3F91058E
S1133E9011F00CF08FEF182FF30115830C943C2BC9
S1133EA0F0907F0400918004F30120812F708F2D06
S1133EB090E0820F911D801B910932F089309105A9
S1133EC014F088E090E0182F412F6FE0C3010E94A6
S1133ED01B020F2911F40C943C2BF30180818F7089
S1133EE090E08830910510F00C943C2BFC01ED5BC4
S1133EF0FF4F0C94DA3A40E060EFC3010E941B02CA
S1133F00F3011282138214820C943C2B40E560EF7F
S1133F10C3010E941B026091630070E082E390E0A1
S1133F200E94C63AF30162838CE3838389EC848321
S1133F300C943C2B40EA60EFC3010E941B02609189
S1133F40630070E082E390E00E94C63AF30162836A
S1133F5089EC83838CE3848387E386830C943C2BF2
S1133F6040E060EFC3010E941B026091630070E0B7
S1133F7080EA90E00E94C63AF30162838CE3838373
S1133F8084830C943C2B6091630070E080EA90E0A1
S1133F900E94C63AF301628384EC838384830C9485
S1133FA03C2B6091630070E080E991E00E94C63A86
S1133FB0F3016283138214821582168284E087835C
S1133FC00C943C2B84E6F30182838383848385836E
S1133FD0868387830C943C2BF301128213820C9406
S1133FE03C2B20917604211116C0F3013681809177
S1133FF07F0490E0830F911D30918004831B91090D
S113400032F08536910514F084E690E0282FF30110
S113401026830C943C2BF30121812F7180917F0422
S113402090E0820F911D20918004821B910912F46B
S11340300C949B378F31910514F08EE190E0182F8A
S11340400C949B3710926000D092830484E1809397
S113405078046EE671E082E00E94020790917F048A
S113406080918004892B11F40C943C2B0E94EC0366
S11340700C943C2BF301818190E09595879595955F
S1134080879595958795959587959595879520918D
S11340907F04820F911D20918004821B91094AF0B4
S11340A08330910514F082E090E0182F1295110FDF
S11340B0107E412F60E68CE694E00E941B020C9473
S11340C03C2BD0926000F30190819F70963021F0D8
S11340D0973009F475C0C8C090917C04EBE7F4E014
S11340E04081292F30E0280F311D241B3109253050
S11340F0310514F40C94A9372830310514F00C94CC
S1134100AE37890F841B809384048630E9F08730AE
S113411099F1853009F047C0F301228180917F0431
S113412090E0820F911D20918004821B9109181642
S1134130190634F48F3F910524F08EEF90E001C00E
S11341408D2DF30182832FC0F301238180917F049D
S113415090E0820F911D20918004821B9109181612
S1134160190634F48F3F910524F08EEF90E001C0DE
S11341708D2DF301838317C0F301248180917F0483
S113418090E0820F911D20918004821B91091816E2
S1134190190634F48F3F910524F08EEF90E001C0AE
S11341A08D2DF301848380917E04833009F001C155
S11341B089E08093840489E095E00E94C30578C077
S11341C090917C04EBE7F4E04081292F30E0280F44
S11341D0311D241B31092530310514F40C94B837F2
S11341E02730310514F00C94B337890F841B809366
S11341F084048530B1F4F301228180917F0490E03E
S1134200820F911D20918004821B910932F08A3023
S1134210910524F089E090E001C0812FF3018283AD
S113422015C0F301238180917F0490E0820F911DDA
S113423020918004821B910932F08536910524F087
S113424084E690E001C0812FF301838380917E0492
S1134250833009F0AEC0D092840489E095E00E94D6
S1134260C3051092600024C090917C04EBE7F4E055
S11342704081292F30E0280F311D241B31092530BE
S1134280310534F0293031052CF4890F841B03C027
S113429088E001C085E08093840480917E048330AB
S11342A039F489E08093840489E095E00E94C30591
S11342B0F3018081282F2F7030E0263031050CF077
S11342C078C0909184049630F9F018F4953039F060
S11342D070C09730C9F1983009F451C06AC0F30135
S11342E0228180917F0490E0820F911D20918004AF
S11342F0821B910932F08F3F910511F00CF08FEF82
S1134300182FF301128355C090E0959587959595E4
S11343108795959587959595879520917F04820F2C
S1134320911D20918004821B910942F08F309105E8
S113433014F08EE090E0182F1295107F412F60EF5B
S1134340C3010E941B0235C0F301238180917F04C5
S113435090E0820F911D27FD9A9520918004821B85
S113436091098C39FFEF9F0734F08536910524F0CD
S113437084E690E001C08CE9F30183831AC0F30161
S1134380248180917F0490E0820F911D27FD9A95EE
S113439020918004821B91098C39FFEF9F0734F030
S11343A08536910524F084E690E001C08CE9F301A0
S11343B0848380917D04833011F00C943C2BD09243
S11343C0840489E095E00E94C305109260000C9477
S11343D03C2BF30190819F70963009F068C0909156
S11343E07C04EBE7F4E04081292F30E0280F311DF5
S11343F0241B31092930310514F40C94BD372C30B9
S1134400310514F00C94C237890F841B8093840403
S11344108A30E9F08B3099F1893009F0D4C0F30186
S1134420258180917F0490E0820F911D209180046A
S1134430821B91091816190634F48F3F910524F054
S11344408EEF90E001C08D2DF3018583BCC0F30194
S1134450268180917F0490E0820F911D2091800439
S1134460821B91091816190634F48F3F910524F024
S11344708EEF90E001C08D2DF3018683A4C0F3017B
S1134480278180917F0490E0820F911D2091800408
S1134490821B91091816190634F48F3F910524F0F4
S11344A08EEF90E001C08D2DF30187838CC0909135
S11344B07C04EBE7F4E04081292F30E0280F311D24
S11344C0241B31092930310514F40C94C7372D30DD
S11344D0310514F00C94CC37890F841B8093840429
S11344E08A3001F120F4893009F06DC006C08B30A8
S11344F099F18C3009F067C052C0F3012581809195
S11345007F0490E0820F911D20918004821B910909
S113451032F08F3F910511F00CF08FEF182FF3015B
S1134520158351C0F30127812F7080917F0490E09F
S1134530820F911D20918004821B910932F08A30F0
S1134540910514F089E090E0182F412F6FE082E785
S113455094E00E941B0237C0F301878190E0959597
S113456087959595879595958795959587952091A8
S11345707F04820F911D20918004821B910942F0D7
S11345808530910514F084E090E0182F1295107F87
S1134590412F60EF82E794E00E941B0214C0F301F4
S11345A0268180917F0490E0820F911D20918004E8
S11345B0821B910932F08536910514F084E690E06F
S11345C0182FF301168380917E04833041F4D09236
S11345D0840489E095E00E94C305109260008091F4
S11345E07D04833011F00C943C2B85E0809384048B
S11345F089E095E00E94C3050C943C2BEBE7F4E0C2
S11346002081812F90E0820F911D20917C04821BD8
S11346109109181619062CF48C01049714F003E080
S113462010E00093830480917D04833041F4109260
S1134630830489E095E00E94C30510926000809194
S113464083048230D9F1833009F471C0813011F0D0
S11346500C943C2B2091780480917F0490E0820F8D
S1134660911D20918004821B910932F085369105B9
S113467024F084E690E001C080E080937804809187
S11346807E04833011F00C943C2B109176048091BD
S113469077040E9484148091780480937604809136
S11346A077040E941A15109376041092830489E00B
S11346B095E00E94C30510926000DEC780917E04DD
S11346C0833009F0D9C70091760484E68093760498
S11346D00436B0F414E68FEF810F80937604809152
S11346E077040E94841410937604809177040E94C6
S11346F01A1510917604115010937604011758F38B
S113470048E06AEB73E0C3010E9409020093760457
S1134710809177040E941A150E94EC03109283047E
S113472089E095E00E94C30510926000A5C78091BE
S11347307E04833009F0A0C7009176040436B0F4F7
S1134740102F81E0810F80937604809177040E947A
S1134750841410937604809177040E941A151091A2
S113476076041F5F10937604143658F348E06AEB1E
S113477073E0C3010E94090284E680937604809169
S113478077040E941A1500937604809177040E949E
S113479084140E94EC031092830489E095E00E9443
S11347A0C3051092600068C780917C04EBE7F4E0D5
S11347B09081282F30E0210F311D291B3109121659
S11347C0130634F4203131052CF4810F891B03C006
S11347D08FE001C08D2D8093830480917D0483300C
S11347E011F40C94D13780917E04833009F058C0C1
S11347F0109283048091C5038823F1F140912B0426
S113480050912C0420E030E080E090E06DE070E016
S1134810621B730BFA0102C0F695E7956A95E2F7FD
S1134820E0FF0AC0B401022E02C0660F771F0A948B
S1134830E2F7862B972B0BC0B401022E02C0660F41
S1134840771F0A94E2F760957095862397232F5F6C
S11348503F4F2E303105D1F62EE020933E0456FF13
S113486002C0906401C09F7B55231CF4BC01706896
S113487007C0BC017F7704C060912B0470912C04A5
S1134880F30181818F7190E0880F991F855B9E4FA2
S11348900E94FC3D89E095E00E94C30510926000EF
S11348A080918304813008F4E7C68F3018F08F308C
S11348B0C1F1E2C690917F049923A9F02EE030E083
S11348C0281B3109A40102C0440F551F2A95E2F7A1
S11348D09A0140912B0450912C04242B352B3093B6
S11348E02C0420932B0490918004992309F4C4C6CA
S11348F02EE030E0B901681B7109F40102C0EE0F2B
S1134900FF1F6A95E2F7CF018095909520912B04C3
S113491030912C048223932390932C0480932B04B2
S1134920ABC680912B0490912C049C0124E0329F0F
S1134930212D332711242115310501F140918004E3
S1134940442371F02150310930E4239F302D222774
S113495011249F73282B392B30932C0420932B0480
S113496080912B0490912C049C0124E0329F212DF2
S1134970332711242330310508F07EC640917F048B
S1134980442309F479C62F5F3F4F30E4239F302D31
S1134990222711249F73282B392B30932C04209326
S11349A02B046AC650917F0440918004909177044F
S11349B0252F30E0290F311D241B310932F0C901A4
S11349C02A30310514F089E090E080937704452B78
S11349D029F10E947F038091770490E08F5B9E4FC2
S11349E00E94CD3D809375040E94E30200917704F8
S11349F010E0C801895C9E4F0E94CD3D8093550410
S1134A0085E1809FB001819F700D11246B597F4F08
S1134A1045E150E086E594E00E94BD3D80917E042E
S1134A20823061F4D092830465E871E083E00E94EF
S1134A30020780917704809378041EC6833009F0BE
S1134A401BC680917604811110926000D092840478
S1134A50809177040E9484140E947F030E94EC03D7
S1134A6089E095E00E94C30507C630917F04209138
S1134A70800440917504832F90E0840F911D821B64
S1134A8091093AF08536910514F084E690E0682F98
S1134A9001C060E060937504232B09F4EDC52091F7
S1134AA0770430E0C9018F5B9E4F0E94EB3DE4C563
S1134AB090918404913009F120F0923009F462C09D
S1134AC0DBC580917E04833009F0D6C5D09284047E
S1134AD01092780460917704F5E16F9FB00111247E
S1134AE06B597F4F45E150E086E594E00E94BD3D5F
S1134AF089E095E00E94C305BFC5809178042091A8
S1134B007F0430E0280F311D80918004281B310977
S1134B1032F02531310524F024E130E001C020E0F9
S1134B2020937804EBE7F4E0208130E02F5F3F4FDF
S1134B3080917C04281B3109121613063CF4C90128
S1134B402330310514F082E090E0982F9093840490
S1134B5080917D04833009F08FC5109284046091A4
S1134B607704F5E16F9FB00111246B597F4F45E144
S1134B7050E086E594E00E94DB3D89E095E00E94E8
S1134B80C3057AC52091780430E0F901EA5AFB4F55
S1134B90408180917F0490E0840F911D40918004B6
S1134BA0841B910932F08536910524F084E690E067
S1134BB001C080E0F901EA5AFB4F8083EBE7F4E09F
S1134BC0808190E0029620917C04821B9109181642
S1134BD0190634F48330910524F082E090E001C09A
S1134BE08D2D8093840480917D04833009F044C525
S1134BF01092840460917704F5E16F9FB001112451
S1134C006B597F4F45E150E086E594E00E94DB3D1F
S1134C1089E095E00E94C3052FC580918404882310
S1134C2009F4CCC0909154049923B9F190917C0477
S1134C30EBE7F4E04081292F30E0280F311D241BDD
S1134C4031091216130634F4243031052CF4890F7B
S1134C50841B03C083E001C08D2D80938404809164
S1134C607D04833009F045C01092840489E095E006
S1134C700E94C3058091540490E00197BC01660F23
S1134C80771F860F971FBC016D5C7F4F43E050E098
S1134C9081E594E00E94DB3D2CC090917C04EBE71D
S1134CA0F4E04081292F30E0280F311D241B310905
S1134CB01216130634F4253031052CF4890F841BA5
S1134CC003C084E001C08D2D8093840480917D0411
S1134CD0833079F41092840489E095E00E94C3053E
S1134CE043E061E574E08EE494E00E9409020E94CE
S1134CF0E30280918404823001F118F4813039F0A8
S1134D00BBC4833081F1843009F442C0B5C420911E
S1134D10510480917F0490E0820F911D20918004C2
S1134D20821B910932F08F3F910521F01CF08FEF27
S1134D3001C080E0809351049FC42091520480916B
S1134D407F0490E0820F911D20918004821B9109C1
S1134D5032F08F3F910521F01CF08FEF01C080E00D
S1134D608093520489C42091530480917F0490E07D
S1134D70820F911D20918004821B91092AF018163C
S1134D8019061CF4C40101C080E08093530474C468
S1134D9020914D0480917F0490E0820F911D209119
S1134DA08004821B910932F08536910524F084E653
S1134DB090E001C080E080934D045EC420915404CF
S1134DC080917F0490E0820F911D20918004821BCA
S1134DD0910912F40C94DE378B30910514F08AE0BB
S1134DE090E08093540420917E04233009F044C45D
S1134DF0D092840481110AC00E942F0343E06EE420
S1134E0074E081E594E00E94090236C49927019771
S1134E10BC01660F771F860F971FBC016D5C7F4F27
S1134E2043E050E081E594E00E94BD3D25C48091BB
S1134E308404882309F47DC18130F9F440917F040E
S1134E408091CA03242F30E0280F311D8091800403
S1134E50682F70E0F901E61BF70B32F09D2D261741
S1134E60370719F490E001C090E09093CA03842BB3
S1134E7021F00E94E3020E94A2038091CA038823C6
S1134E8009F458C08091380481110C94EF372091B3
S1134E907C0430918404EBE7F4E0808190E0830F9C
S1134EA0911D821B91091816190614F00C94E7370A
S1134EB08430910514F083E090E0809384042223ED
S1134EC021F0813011F40E94930280918404823095
S1134ED019F08330C1F01DC120917F0480910F042B
S1134EE090911004820F911D20918004821B9109DE
S1134EF08115F4E09F0710F08FEF93E09093100476
S1134F0080930F0406C120917F0480911104909135
S1134F101204820F911D20918004821B91098D320D
S1134F2021E0920710F08CE291E0909312048093B8
S1134F301104EFC08091380481110C94F73720914B
S1134F408404EBE7F4E0808190E0820F911D2091CE
S1134F507C04821B91091816190614F00C945B3812
S1134F608330910514F082E090E0809384048230D1
S1134F7009F0CFC080917E04833009F0CAC010923A
S1134F80600010927E04D0923804109212041092A1
S1134F9011048FEF93E09093100480930F0489E041
S1134FA095E00E94C305B5C080917C048823C1F0BC
S1134FB082E0809338048FEF93E0909312048093FF
S1134FC011041092100410920F04EAECF4E086EE3F
S1134FD094E0119211928E179F07D9F70C94FF3722
S1134FE080913804813011F00C9411382091C6045A
S1134FF03091C70480910F04909110042817390749
S1135000B8F48091C8049091C9048F3FF3E09F07DE
S113501011F40C940A383093100420930F04209157
S113502011043091120428173907A8F00C945F3842
S11350308091C8049091C904209111043091120404
S11350402817390710F00C940A388F3F23E0920791
S113505011F40C940A3890931204809311040C9464
S11350600A380E9493021BC082E08230C1F440914E
S1135070C6045091C704EAEAF4E026EC34E08191D6
S11350809191841B950B978F868F2E173F07B9F745
S11350908EE080933E040E9478020E94A203D09284
S11350A0600010927E041092380489E095E00E941A
S11350B0C30580917D04833009F0DEC280913804F9
S11350C0813019F40E9493021AC08230C1F44091D5
S11350D0C6045091C704EAEAF4E026EC34E0819176
S11350E09191841B950B978F868F2E173F07B9F7E5
S11350F08EE080933E040E9478020E94A203D09224
S1135100600010927D041092380489E095E00E94BA
S1135110C30580917D04833009F0AEC20E949302DE
S113512010928404D092600089E095E00E94C30547
S1135130A3C280917E04833009F09EC20E94A20320
S1135140D092840489E095E00E94C30595C28091C1
S11351508404882309F461C0EBE7F4E0208190E043
S1135160820F911D20917C04821B91091816190647
S113517034F48330910524F082E090E001C08D2D59
S11351808093840480917D048330A1F4109284047C
S11351908091650090916600E6EAF4E02FEF33E039
S11351A031832083928383830E94E30289E095E024
S11351B00E94C305809184048130B9F49091660003
S11351C020917F0430E0290F311D90918004291B28
S11351D031091216130634F4C901283C310514F0C0
S11351E087EC90E08093660047C22091650080912F
S11351F07F0490E0820F911D20918004821B91090D
S11352001816190634F4883C910524F087EC90E0D4
S113521001C08D2D809365002FC280917E04833060
S113522009F02AC2D092840489E095E00E94C30563
S113523023C220918404222309F4CFC0EBE7F4E0D5
S1135240408130917C04842F90E0820F911D831B58
S113525091091816190614F00C9418388330910526
S113526014F082E090E080938404813009F04DC012
S11352708091C603811130C080917E04833009F08F
S113528041C0D092C603D092C4031092C20380914D
S11352905404811103C00E942F0334C090E001978D
S11352A0BC01660F771F860F971FBC016D5C7F4F93
S11352B043E050E081E594E00E94BD3DEEE4F4E07B
S11352C0A1E5B4E08C91808311968C911197818330
S11352D012968C91828316C0342B90917D04932B6B
S11352E080917E04982B80917F04982B8091800478
S11352F0892B41F010927D041092C6031092C403CE
S11353000E942F031092780404C01092C6031092D6
S1135310C40380917D04833061F41092840410925C
S1135320C6031092C4030E942F0389E095E00E94F3
S1135330C30580918404823009F09EC120917804D1
S113534080917F0490E0820F911D20918004821B44
S1135350910912F40C941C388530910514F084E002
S113536090E0809378048230E9F028F4882341F0B7
S1135370813079F081C18330F1F0843029F17CC12E
S113538040E050E060E070E086EA94E00E944E0461
S113539073C14CE05EEF6CE07EEF86EA94E00E941D
S11353A04E046AC144EF51E064EF71E086EA94E090
S11353B00E944E0461C14CE05EEF64EF71E086EA46
S11353C094E00E944E0458C144EF51E06CE07EEF3B
S11353D086EA94E00E944E044FC11092C6031092D4
S11353E0C40380917E04833041F4D09284041092EB
S11353F0780489E095E00E94C30540E050E060E055
S113540070E086EA94E00E944E0436C180918404E0
S1135410882309F455C0EBE7F4E0208190E0820F83
S1135420911D20917C04821B91091816190614F011
S11354300C9420388330910514F082E090E080933E
S113544084048130C1F42091640080917F0490E051
S1135450820F911D20918004821B91091816190650
S113546034F48536910524F084E690E001C08D2D56
S11354708093640017C02091630080917F0490E0C2
S1135480820F911D20918004821B91091816190620
S113549034F48536910524F084E690E001C08D2D26
S11354A08093630080917D04833009F0E5C01092FD
S11354B084040E94E30289E095E00E94C305DCC0F5
S11354C080917E04833009F0D7C0D092840489E0AF
S11354D095E00E94C305D0C080917E04833031F4EE
S11354E0D092840489E095E00E94C30580918404ED
S11354F0882309F4C1C080917D04833009F0BCC0C5
S11355001092840489E095E00E94C305B5C080919F
S11355108404882309F4A4C0EBE7F4E0908191307B
S113552079F490917804913029F4843018F48F5FE1
S113553080938404D092780489E095E00E94C305A6
S113554080917C04813089F480917804811107C0B2
S113555080918404823018F08150809384041092E6
S1135560780489E095E00E94C30580917D0483302E
S113557041F4109284040E94E30289E095E00E94C1
S1135580C305209184048091780490E0820F911DDA
S11355908230910519F11CF4019741F06DC08330FC
S11355A0910591F1049709F445C066C020914C041B
S11355B080917F0490E0820F911D20918004821BD2
S11355C091098530910534F08333910524F082E309
S11355D090E001C085E080934C044EC020914B04C0
S11355E080917F0490E0820F911D20918004821BA2
S11355F0910932F08333910524F082E390E001C0F5
S113560080E080934B0438C020913B0480917F0458
S113561090E0820F911D20918004821B910932F049
S11356208F3F910521F01CF08FEF01C080E0809343
S11356303B0422C020914A0480917F0490E0820FB1
S1135640911D20918004821B910932F0893C9105BF
S113565024F088EC90E001C080E080934A040CC000
S113566080917E04833041F4D092840410927804B3
S113567089E095E00E94C30580916100882311F4BC
S11356800C940619109261008091840481110C9489
S11356903D38E0918504EE2311F40C943138809167
S11356A0830481110C94243823EE33E0512C0F2E03
S11356B0F1E14F2EF02D0F2EFEEDAF2EF0E0BF2EB8
S11356C0F02D0F2EF3EDCF2EF0E0DF2EF02D212C58
S11356D00F2EFCEE8F2EF0E09F2EF02D0F2EF5EE08
S11356E06F2EF0E07F2EF02D0F2EF9E9EF2EF2E071
S11356F0FF2EF02D052D3D832C8310918504115030
S1135700100F419EB0011124625B7D4F8FEC93E03A
S11357100E94033B113051F130F01330E9F118309D
S113572009F465C0D9C08091770490E00196209176
S1135730C503211103C020E2322D02C027E2322D1D
S11357409F938F933F932F938FEC93E09F938F932B
S1135750DF92CF923D813F934C814F930E940A3B4D
S11357600FB6F894DEBF0FBECDBFC8C080917504DC
S11357701F928F938FEC93E09F938F93BF92AF927E
S11357807D817F938C818F930E940A3B0FB6F8949E
S1135790DEBF0FBECDBFB2C080915404811113C0CF
S11357A08FEC93E09F938F937F926F92FD81FF9391
S11357B02C812F930E940A3B0F900F900F900F9013
S11357C00F900F909BC01F928F938FEC93E09F9349
S11357D08F939F928F923D813F934C814F930E9470
S11357E00A3B0FB6F894DEBF0FBECDBF87C0409111
S11357F00D0450910E049A01ADECBCEC0E94E03A09
S1135800FC01F695E795F695E795F695E7959F01E2
S11358100E94E03A969587959695879596958795F3
S11358209C01220F331F880F991F880F991F880F1F
S1135830991F820F931FE81BF90BFF93EF939A01B3
S11358403695279536952795ABE7B4E10E94E03A63
S1135850FC01F695E7959F01ADECBCEC0E94E03AA3
S11358609695879596958795969587959C01220F91
S1135870331F880F991F880F991F880F991F820F54
S1135880931FE81BF90BFF93EF939A013695279525
S11358903695279536952795A5ECB0E20E94E03A17
S11358A0929582958F7089279F7089279F938F93F4
S11358B08FEC93E09F938F9384EF90E09F938F936B
S11358C0FD81FF932C812F930E940A3B0FB6F8941D
S11358D0DEBF0FBECDBF12C08FEC93E09F938F93BA
S11358E0FF92EF925D815F936C816F930E940A3BFC
S11358F00F900F900F900F900F900F900F5F8C816F
S11359009D8144969D838C83023009F0F6CEE0910C
S1135910C903E11102C081E001C081E180937904EF
S11359208EE38093620080918504F0E0E80FF11D1E
S1135930EB30F10510F00C94BA36E55BFF4F0C9494
S1135940DA3A8091CB0381110FC00AEA14E01A827B
S11359500F2EFDE8EF2EF4E0FF2EF02D712CC12C5C
S11359606894DD24D7F8EDC18091C303882309F43A
S113597093C040E062E089E095E00E9457068DE024
S1135980E0E0F1E0A3EEB3E001900D928A95E1F737
S113599063EE73E089E095E00E94E50641E065E08E
S11359A089E095E00E94570640910D0450910E0441
S11359B09A01ADECBCEC0E94E03AFC01F695E79547
S11359C0F695E795F695E7959F010E94E03A96953E
S11359D0879596958795969587959C01220F331FF9
S11359E0880F991F880F991F880F991F820F931F83
S11359F0E81BF90BFF93EF939A013695279536959B
S1135A002795ABE7B4E10E94E03AFC01F695E795EF
S1135A109F01ADECBCEC0E94E03A96958795969573
S1135A208795969587959C01220F331F880F991FA0
S1135A30880F991F880F991F820F931FE81BF90B7A
S1135A40FF93EF939A0136952795369527953695CA
S1135A502795A5ECB0E20E94E03A929582958F706A
S1135A6089279F7089279F938F9386EF90E09F9358
S1135A708F93E3EEF3E0FF93EF930E940A3B63EE10
S1135A8073E089E095E00E94E5060FB6F894DEBF66
S1135A900FBECDBF0C94BA3640E060E089E095E0DB
S1135AA00E9457068091CC03882329F080914504F5
S1135AB090E0019703C08091450490E09F938F93F9
S1135AC084E491E09F938F9383EE93E09F938F936D
S1135AD00E940A3B63EE73E089E095E00E94E506CC
S1135AE041E060E089E095E00E9457060F900F9036
S1135AF00F900F900F900F908091C503811103C0F8
S1135B0080E290E002C087E290E09F938F938091BF
S1135B10440490E001969F938F938DE091E09F93CE
S1135B208F9383EE93E09F938F930E940A3B63EEDF
S1135B3073E089E095E00E94E5060FB6F894DEBFB5
S1135B400FBECDBF8091CC03882351F088E0E4E1FF
S1135B50F1E0A3EEB3E001900D928A95E1F723C042
S1135B6080914104813051F488E0ECE1F1E0A3EE4E
S1135B70B3E001900D928A95E1F715C0853050F499
S1135B8088E0E4E2F1E0A3EEB3E001900D928A959F
S1135B90E1F709C088E0ECE2F1E0A3EEB3E00190A4
S1135BA00D928A95E1F740E065E089E095E00E9476
S1135BB0570663EE73E089E095E00E94E506809164
S1135BC04104853030F48091CC03882311F40C9483
S1135BD0BA3641E065E089E095E00E9457064091BD
S1135BE0130450911404FA01F695E795F695E79598
S1135BF0F695E7959F01AFE4BBE10E94E03A9695E4
S1135C008795969587959695879528E532E0BC010A
S1135C10629FC001639F900D729F900D11249A01A1
S1135C20281B390B3D832C83ADECBCEC0E94E03A7D
S1135C30AC015695479556954795569547959A01C3
S1135C40220F331FCA01880F991F880F991F880FCD
S1135C50991F820F931F6C817D81681B790BCB0187
S1135C6099279F938F939A010E94E03A969587957E
S1135C7096958795969587959C01220F331F880FDB
S1135C80991F880F991F880F991F820F931F9A01DC
S1135C90281B390BC90199279F938F932C813D8130
S1135CA03695279536952795ABE7B4E10E94E03AFF
S1135CB0AC01569547959A01ADECBCEC0E94E03AD4
S1135CC09695879596958795969587959C01220F2D
S1135CD0331F880F991F880F991F880F991F820FF0
